{
  "contractName": "Fundraiser",
  "abi": [
    {
      "inputs": [
        {
          "internalType": "string",
          "name": "_name",
          "type": "string"
        },
        {
          "internalType": "string",
          "name": "_url",
          "type": "string"
        },
        {
          "internalType": "string",
          "name": "_imageURL",
          "type": "string"
        },
        {
          "internalType": "string",
          "name": "_description",
          "type": "string"
        },
        {
          "internalType": "address payable",
          "name": "_beneficiary",
          "type": "address"
        },
        {
          "internalType": "address",
          "name": "_custodian",
          "type": "address"
        }
      ],
      "stateMutability": "nonpayable",
      "type": "constructor"
    },
    {
      "anonymous": false,
      "inputs": [
        {
          "indexed": true,
          "internalType": "address",
          "name": "donor",
          "type": "address"
        },
        {
          "indexed": false,
          "internalType": "uint256",
          "name": "value",
          "type": "uint256"
        }
      ],
      "name": "DonationReceived",
      "type": "event"
    },
    {
      "anonymous": false,
      "inputs": [
        {
          "indexed": true,
          "internalType": "address",
          "name": "previousOwner",
          "type": "address"
        },
        {
          "indexed": true,
          "internalType": "address",
          "name": "newOwner",
          "type": "address"
        }
      ],
      "name": "OwnershipTransferred",
      "type": "event"
    },
    {
      "anonymous": false,
      "inputs": [
        {
          "indexed": false,
          "internalType": "uint256",
          "name": "amount",
          "type": "uint256"
        }
      ],
      "name": "Withdraw",
      "type": "event"
    },
    {
      "stateMutability": "payable",
      "type": "fallback"
    },
    {
      "inputs": [],
      "name": "beneficiary",
      "outputs": [
        {
          "internalType": "address payable",
          "name": "",
          "type": "address"
        }
      ],
      "stateMutability": "view",
      "type": "function"
    },
    {
      "inputs": [],
      "name": "description",
      "outputs": [
        {
          "internalType": "string",
          "name": "",
          "type": "string"
        }
      ],
      "stateMutability": "view",
      "type": "function"
    },
    {
      "inputs": [],
      "name": "donationsCount",
      "outputs": [
        {
          "internalType": "uint256",
          "name": "",
          "type": "uint256"
        }
      ],
      "stateMutability": "view",
      "type": "function"
    },
    {
      "inputs": [],
      "name": "imageURL",
      "outputs": [
        {
          "internalType": "string",
          "name": "",
          "type": "string"
        }
      ],
      "stateMutability": "view",
      "type": "function"
    },
    {
      "inputs": [],
      "name": "name",
      "outputs": [
        {
          "internalType": "string",
          "name": "",
          "type": "string"
        }
      ],
      "stateMutability": "view",
      "type": "function"
    },
    {
      "inputs": [],
      "name": "owner",
      "outputs": [
        {
          "internalType": "address",
          "name": "",
          "type": "address"
        }
      ],
      "stateMutability": "view",
      "type": "function"
    },
    {
      "inputs": [],
      "name": "renounceOwnership",
      "outputs": [],
      "stateMutability": "nonpayable",
      "type": "function"
    },
    {
      "inputs": [],
      "name": "totalDonations",
      "outputs": [
        {
          "internalType": "uint256",
          "name": "",
          "type": "uint256"
        }
      ],
      "stateMutability": "view",
      "type": "function"
    },
    {
      "inputs": [
        {
          "internalType": "address",
          "name": "newOwner",
          "type": "address"
        }
      ],
      "name": "transferOwnership",
      "outputs": [],
      "stateMutability": "nonpayable",
      "type": "function"
    },
    {
      "inputs": [],
      "name": "url",
      "outputs": [
        {
          "internalType": "string",
          "name": "",
          "type": "string"
        }
      ],
      "stateMutability": "view",
      "type": "function"
    },
    {
      "inputs": [
        {
          "internalType": "address payable",
          "name": "_beneficiary",
          "type": "address"
        }
      ],
      "name": "setBeneficiary",
      "outputs": [],
      "stateMutability": "nonpayable",
      "type": "function"
    },
    {
      "inputs": [],
      "name": "myDonationsCount",
      "outputs": [
        {
          "internalType": "uint256",
          "name": "",
          "type": "uint256"
        }
      ],
      "stateMutability": "view",
      "type": "function"
    },
    {
      "inputs": [],
      "name": "donate",
      "outputs": [],
      "stateMutability": "payable",
      "type": "function"
    },
    {
      "inputs": [],
      "name": "myDonations",
      "outputs": [
        {
          "internalType": "uint256[]",
          "name": "values",
          "type": "uint256[]"
        },
        {
          "internalType": "uint256[]",
          "name": "dates",
          "type": "uint256[]"
        }
      ],
      "stateMutability": "view",
      "type": "function"
    },
    {
      "inputs": [],
      "name": "withdraw",
      "outputs": [],
      "stateMutability": "nonpayable",
      "type": "function"
    }
  ],
  "bytecode": "0x60806040523480156200001157600080fd5b506040516200192a3803806200192a833981810160405281019062000037919062000335565b620000576200004b6200011960201b60201c565b6200012160201b60201c565b85600290805190602001906200006f929190620001e5565b50846003908051906020019062000088929190620001e5565b508360049080519060200190620000a1929190620001e5565b508260059080519060200190620000ba929190620001e5565b5081600660006101000a81548173ffffffffffffffffffffffffffffffffffffffff021916908373ffffffffffffffffffffffffffffffffffffffff1602179055506200010d816200012160201b60201c565b505050505050620005dc565b600033905090565b60008060009054906101000a900473ffffffffffffffffffffffffffffffffffffffff169050816000806101000a81548173ffffffffffffffffffffffffffffffffffffffff021916908373ffffffffffffffffffffffffffffffffffffffff1602179055508173ffffffffffffffffffffffffffffffffffffffff168173ffffffffffffffffffffffffffffffffffffffff167f8be0079c531659141344cd1fd0a4f28419497f9722a3daafe3b4186f6b6457e060405160405180910390a35050565b828054620001f39062000514565b90600052602060002090601f01602090048101928262000217576000855562000263565b82601f106200023257805160ff191683800117855562000263565b8280016001018555821562000263579182015b828111156200026257825182559160200191906001019062000245565b5b50905062000272919062000276565b5090565b5b808211156200029157600081600090555060010162000277565b5090565b6000620002ac620002a68462000463565b6200042f565b905082815260208101848484011115620002c557600080fd5b620002d2848285620004de565b509392505050565b600081519050620002eb81620005a8565b92915050565b6000815190506200030281620005c2565b92915050565b600082601f8301126200031a57600080fd5b81516200032c84826020860162000295565b91505092915050565b60008060008060008060c087890312156200034f57600080fd5b600087015167ffffffffffffffff8111156200036a57600080fd5b6200037889828a0162000308565b965050602087015167ffffffffffffffff8111156200039657600080fd5b620003a489828a0162000308565b955050604087015167ffffffffffffffff811115620003c257600080fd5b620003d089828a0162000308565b945050606087015167ffffffffffffffff811115620003ee57600080fd5b620003fc89828a0162000308565b93505060806200040f89828a01620002f1565b92505060a06200042289828a01620002da565b9150509295509295509295565b6000604051905081810181811067ffffffffffffffff8211171562000459576200045862000579565b5b8060405250919050565b600067ffffffffffffffff82111562000481576200048062000579565b5b601f19601f8301169050602081019050919050565b6000620004a382620004be565b9050919050565b6000620004b782620004be565b9050919050565b600073ffffffffffffffffffffffffffffffffffffffff82169050919050565b60005b83811015620004fe578082015181840152602081019050620004e1565b838111156200050e576000848401525b50505050565b600060028204905060018216806200052d57607f821691505b602082108114156200054457620005436200054a565b5b50919050565b7f4e487b7100000000000000000000000000000000000000000000000000000000600052602260045260246000fd5b7f4e487b7100000000000000000000000000000000000000000000000000000000600052604160045260246000fd5b620005b38162000496565b8114620005bf57600080fd5b50565b620005cd81620004aa565b8114620005d957600080fd5b50565b61133e80620005ec6000396000f3fe6080604052600436106100ec5760003560e01c80635600f04f1161008a578063b90497e011610059578063b90497e0146102d2578063de2ed893146102fd578063ed88c68e14610328578063f2fde38b14610332576100ed565b80635600f04f1461023a578063715018a6146102655780637284e4161461027c5780638da5cb5b146102a7576100ed565b80631c31f710116100c65780631c31f710146101a45780631f522595146101cd57806338af3eed146101f85780633ccfd60b14610223576100ed565b80630180b97c1461012257806306fdde031461014d5780631a57f7b414610178576100ed565b5b6101023460075461035b90919063ffffffff16565b6007819055506008600081548092919061011b90611222565b9190505550005b34801561012e57600080fd5b50610137610371565b60405161014491906110a9565b60405180910390f35b34801561015957600080fd5b506101626103bb565b60405161016f9190611047565b60405180910390f35b34801561018457600080fd5b5061018d610449565b60405161019b929190611010565b60405180910390f35b3480156101b057600080fd5b506101cb60048036038101906101c69190610e20565b61067c565b005b3480156101d957600080fd5b506101e261073c565b6040516101ef91906110a9565b60405180910390f35b34801561020457600080fd5b5061020d610742565b60405161021a9190610ff5565b60405180910390f35b34801561022f57600080fd5b50610238610768565b005b34801561024657600080fd5b5061024f61088c565b60405161025c9190611047565b60405180910390f35b34801561027157600080fd5b5061027a61091a565b005b34801561028857600080fd5b506102916109a2565b60405161029e9190611047565b60405180910390f35b3480156102b357600080fd5b506102bc610a30565b6040516102c99190610fda565b60405180910390f35b3480156102de57600080fd5b506102e7610a59565b6040516102f49190611047565b60405180910390f35b34801561030957600080fd5b50610312610ae7565b60405161031f91906110a9565b60405180910390f35b610330610aed565b005b34801561033e57600080fd5b5061035960048036038101906103549190610df7565b610c09565b005b600081836103699190611119565b905092915050565b6000600160003373ffffffffffffffffffffffffffffffffffffffff1673ffffffffffffffffffffffffffffffffffffffff16815260200190815260200160002080549050905090565b600280546103c8906111f0565b80601f01602080910402602001604051908101604052809291908181526020018280546103f4906111f0565b80156104415780601f1061041657610100808354040283529160200191610441565b820191906000526020600020905b81548152906001019060200180831161042457829003601f168201915b505050505081565b6060806000610456610371565b90508067ffffffffffffffff811115610498577f4e487b7100000000000000000000000000000000000000000000000000000000600052604160045260246000fd5b6040519080825280602002602001820160405280156104c65781602001602082028036833780820191505090505b5092508067ffffffffffffffff811115610509577f4e487b7100000000000000000000000000000000000000000000000000000000600052604160045260246000fd5b6040519080825280602002602001820160405280156105375781602001602082028036833780820191505090505b50915060005b81811015610676576000600160003373ffffffffffffffffffffffffffffffffffffffff1673ffffffffffffffffffffffffffffffffffffffff16815260200190815260200160002082815481106105be577f4e487b7100000000000000000000000000000000000000000000000000000000600052603260045260246000fd5b90600052602060002090600202019050806000015485838151811061060c577f4e487b7100000000000000000000000000000000000000000000000000000000600052603260045260246000fd5b6020026020010181815250508060010154848381518110610656577f4e487b7100000000000000000000000000000000000000000000000000000000600052603260045260246000fd5b60200260200101818152505050808061066e90611222565b91505061053d565b50509091565b610684610d01565b73ffffffffffffffffffffffffffffffffffffffff166106a2610a30565b73ffffffffffffffffffffffffffffffffffffffff16146106f8576040517f08c379a00000000000000000000000000000000000000000000000000000000081526004016106ef90611089565b60405180910390fd5b80600660006101000a81548173ffffffffffffffffffffffffffffffffffffffff021916908373ffffffffffffffffffffffffffffffffffffffff16021790555050565b60085481565b600660009054906101000a900473ffffffffffffffffffffffffffffffffffffffff1681565b610770610d01565b73ffffffffffffffffffffffffffffffffffffffff1661078e610a30565b73ffffffffffffffffffffffffffffffffffffffff16146107e4576040517f08c379a00000000000000000000000000000000000000000000000000000000081526004016107db90611089565b60405180910390fd5b6000479050600660009054906101000a900473ffffffffffffffffffffffffffffffffffffffff1673ffffffffffffffffffffffffffffffffffffffff166108fc829081150290604051600060405180830381858888f19350505050158015610851573d6000803e3d6000fd5b507f5b6b431d4476a211bb7d41c20d1aab9ae2321deee0d20be3d9fc9b1093fa6e3d8160405161088191906110a9565b60405180910390a150565b60038054610899906111f0565b80601f01602080910402602001604051908101604052809291908181526020018280546108c5906111f0565b80156109125780601f106108e757610100808354040283529160200191610912565b820191906000526020600020905b8154815290600101906020018083116108f557829003601f168201915b505050505081565b610922610d01565b73ffffffffffffffffffffffffffffffffffffffff16610940610a30565b73ffffffffffffffffffffffffffffffffffffffff1614610996576040517f08c379a000000000000000000000000000000000000000000000000000000000815260040161098d90611089565b60405180910390fd5b6109a06000610d09565b565b600580546109af906111f0565b80601f01602080910402602001604051908101604052809291908181526020018280546109db906111f0565b8015610a285780601f106109fd57610100808354040283529160200191610a28565b820191906000526020600020905b815481529060010190602001808311610a0b57829003601f168201915b505050505081565b60008060009054906101000a900473ffffffffffffffffffffffffffffffffffffffff16905090565b60048054610a66906111f0565b80601f0160208091040260200160405190810160405280929190818152602001828054610a92906111f0565b8015610adf5780601f10610ab457610100808354040283529160200191610adf565b820191906000526020600020905b815481529060010190602001808311610ac257829003601f168201915b505050505081565b60075481565b60006040518060400160405280348152602001428152509050600160003373ffffffffffffffffffffffffffffffffffffffff1673ffffffffffffffffffffffffffffffffffffffff16815260200190815260200160002081908060018154018082558091505060019003906000526020600020906002020160009091909190915060008201518160000155602082015181600101555050610b9a3460075461035b90919063ffffffff16565b60078190555060086000815480929190610bb390611222565b91905055503373ffffffffffffffffffffffffffffffffffffffff167f264f630d9efa0d07053a31163641d9fcc0adafc9d9e76f1c37c2ce3a558d2c5234604051610bfe91906110a9565b60405180910390a250565b610c11610d01565b73ffffffffffffffffffffffffffffffffffffffff16610c2f610a30565b73ffffffffffffffffffffffffffffffffffffffff1614610c85576040517f08c379a0000000000000000000000000000000000000000000000000000000008152600401610c7c90611089565b60405180910390fd5b600073ffffffffffffffffffffffffffffffffffffffff168173ffffffffffffffffffffffffffffffffffffffff161415610cf5576040517f08c379a0000000000000000000000000000000000000000000000000000000008152600401610cec90611069565b60405180910390fd5b610cfe81610d09565b50565b600033905090565b60008060009054906101000a900473ffffffffffffffffffffffffffffffffffffffff169050816000806101000a81548173ffffffffffffffffffffffffffffffffffffffff021916908373ffffffffffffffffffffffffffffffffffffffff1602179055508173ffffffffffffffffffffffffffffffffffffffff168173ffffffffffffffffffffffffffffffffffffffff167f8be0079c531659141344cd1fd0a4f28419497f9722a3daafe3b4186f6b6457e060405160405180910390a35050565b600081359050610ddc816112da565b92915050565b600081359050610df1816112f1565b92915050565b600060208284031215610e0957600080fd5b6000610e1784828501610dcd565b91505092915050565b600060208284031215610e3257600080fd5b6000610e4084828501610de2565b91505092915050565b6000610e558383610fbc565b60208301905092915050565b610e6a81611181565b82525050565b610e798161116f565b82525050565b6000610e8a826110d4565b610e9481856110f7565b9350610e9f836110c4565b8060005b83811015610ed0578151610eb78882610e49565b9750610ec2836110ea565b925050600181019050610ea3565b5085935050505092915050565b6000610ee8826110df565b610ef28185611108565b9350610f028185602086016111bd565b610f0b816112c9565b840191505092915050565b6000610f23602683611108565b91507f4f776e61626c653a206e6577206f776e657220697320746865207a65726f206160008301527f64647265737300000000000000000000000000000000000000000000000000006020830152604082019050919050565b6000610f89602083611108565b91507f4f776e61626c653a2063616c6c6572206973206e6f7420746865206f776e65726000830152602082019050919050565b610fc5816111b3565b82525050565b610fd4816111b3565b82525050565b6000602082019050610fef6000830184610e70565b92915050565b600060208201905061100a6000830184610e61565b92915050565b6000604082019050818103600083015261102a8185610e7f565b9050818103602083015261103e8184610e7f565b90509392505050565b600060208201905081810360008301526110618184610edd565b905092915050565b6000602082019050818103600083015261108281610f16565b9050919050565b600060208201905081810360008301526110a281610f7c565b9050919050565b60006020820190506110be6000830184610fcb565b92915050565b6000819050602082019050919050565b600081519050919050565b600081519050919050565b6000602082019050919050565b600082825260208201905092915050565b600082825260208201905092915050565b6000611124826111b3565b915061112f836111b3565b9250827fffffffffffffffffffffffffffffffffffffffffffffffffffffffffffffffff038211156111645761116361126b565b5b828201905092915050565b600061117a82611193565b9050919050565b600061118c82611193565b9050919050565b600073ffffffffffffffffffffffffffffffffffffffff82169050919050565b6000819050919050565b60005b838110156111db5780820151818401526020810190506111c0565b838111156111ea576000848401525b50505050565b6000600282049050600182168061120857607f821691505b6020821081141561121c5761121b61129a565b5b50919050565b600061122d826111b3565b91507fffffffffffffffffffffffffffffffffffffffffffffffffffffffffffffffff8214156112605761125f61126b565b5b600182019050919050565b7f4e487b7100000000000000000000000000000000000000000000000000000000600052601160045260246000fd5b7f4e487b7100000000000000000000000000000000000000000000000000000000600052602260045260246000fd5b6000601f19601f8301169050919050565b6112e38161116f565b81146112ee57600080fd5b50565b6112fa81611181565b811461130557600080fd5b5056fea2646970667358221220b6c33aa079dba5bd993bd21f99d366faaf016d60b6cd8154d2bff13560f9301464736f6c63430008000033",
  "immutableReferences": {},
  "source": "// SPDX-License-Identifier: MIT\npragma solidity >=0.4.21 <0.9.0;\n\nimport \"@openzeppelin/contracts/access/Ownable.sol\";\nimport \"@openzeppelin/contracts/utils/math/SafeMath.sol\";\n\ncontract Fundraiser is Ownable {\n    using SafeMath for uint256;\n\n    struct Donation {\n        uint256 value;\n        uint256 date;\n    }\n    mapping(address => Donation[]) private _donations;\n\n    event DonationReceived(address indexed donor, uint256 value);\n    event Withdraw(uint256 amount);\n\n    string public name;\n    string public url;\n    string public imageURL;\n    string public description;\n\n    address payable public beneficiary;\n\n    uint256 public totalDonations;\n    uint256 public donationsCount;\n\n    constructor(\n        string memory _name,\n        string memory _url,\n        string memory _imageURL,\n        string memory _description,\n        address payable _beneficiary,\n        address _custodian\n    ) {\n        name = _name;\n        url = _url;\n        imageURL = _imageURL;\n        description = _description;\n        beneficiary = _beneficiary;\n        _transferOwnership(_custodian);\n    }\n\n    // Fallback function\n    fallback() external payable {\n        // Increase donations (i.e. from anonymous donation)\n        totalDonations = totalDonations.add(msg.value);\n        donationsCount++;\n    }\n\n    function setBeneficiary(address payable _beneficiary) public onlyOwner {\n        beneficiary = _beneficiary;\n    }\n\n    function myDonationsCount() public view returns (uint256) {\n        return _donations[msg.sender].length;\n    }\n\n    function donate() public payable {\n        Donation memory donation = Donation({\n            value: msg.value,\n            date: block.timestamp\n        });\n        // Add for donor\n        _donations[msg.sender].push(donation);\n        // Add to totals\n        totalDonations = totalDonations.add(msg.value);\n        donationsCount++;\n        // Emit event for logs\n        emit DonationReceived(msg.sender, msg.value);\n    }\n\n    function myDonations()\n        public\n        view\n        returns (uint256[] memory values, uint256[] memory dates)\n    {\n        // Since we cannot return a struct, we must construct and return a tuple that matches the schema\n        uint256 count = myDonationsCount();\n        values = new uint256[](count);\n        dates = new uint256[](count);\n\n        for (uint256 i = 0; i < count; i++) {\n            Donation storage donation = _donations[msg.sender][i];\n            values[i] = donation.value;\n            dates[i] = donation.date;\n        }\n\n        return (values, dates);\n    }\n\n    // transfer balance of this contract to the beneficiary payable address\n    function withdraw() public onlyOwner {\n        uint256 balance = address(this).balance;\n        beneficiary.transfer(balance);\n        // Emit event for logs\n        emit Withdraw(balance);\n    }\n}\n",
  "sourcePath": "/Users/shaula/Library/Mobile Documents/com~apple~CloudDocs/repos/dapp-fundraisers/contracts/Fundraiser.sol",
  "compiler": {
    "name": "solc",
    "version": "0.8.0+commit.c7dfd78e.Emscripten.clang"
  },
  "schemaVersion": "3.4.3",
  "updatedAt": "2022-01-01T07:39:57.695Z",
  "devdoc": {
    "kind": "dev",
    "methods": {
      "owner()": {
        "details": "Returns the address of the current owner."
      },
      "renounceOwnership()": {
        "details": "Leaves the contract without owner. It will not be possible to call `onlyOwner` functions anymore. Can only be called by the current owner. NOTE: Renouncing ownership will leave the contract without an owner, thereby removing any functionality that is only available to the owner."
      },
      "transferOwnership(address)": {
        "details": "Transfers ownership of the contract to a new account (`newOwner`). Can only be called by the current owner."
      }
    },
    "version": 1
  },
  "userdoc": {
    "kind": "user",
    "methods": {},
    "version": 1
  }
}